{
  "address": "0xd7829F41B4093097ED10167457B1244A90e66984",
  "abi": [
    {
      "inputs": [],
      "stateMutability": "nonpayable",
      "type": "constructor"
    },
    {
      "anonymous": false,
      "inputs": [
        {
          "indexed": true,
          "internalType": "address",
          "name": "owner",
          "type": "address"
        },
        {
          "indexed": true,
          "internalType": "address",
          "name": "approved",
          "type": "address"
        },
        {
          "indexed": true,
          "internalType": "uint256",
          "name": "tokenId",
          "type": "uint256"
        }
      ],
      "name": "Approval",
      "type": "event"
    },
    {
      "anonymous": false,
      "inputs": [
        {
          "indexed": true,
          "internalType": "address",
          "name": "owner",
          "type": "address"
        },
        {
          "indexed": true,
          "internalType": "address",
          "name": "operator",
          "type": "address"
        },
        {
          "indexed": false,
          "internalType": "bool",
          "name": "approved",
          "type": "bool"
        }
      ],
      "name": "ApprovalForAll",
      "type": "event"
    },
    {
      "anonymous": false,
      "inputs": [
        {
          "indexed": true,
          "internalType": "address",
          "name": "previousOwner",
          "type": "address"
        },
        {
          "indexed": true,
          "internalType": "address",
          "name": "newOwner",
          "type": "address"
        }
      ],
      "name": "OwnershipTransferred",
      "type": "event"
    },
    {
      "anonymous": false,
      "inputs": [
        {
          "indexed": false,
          "internalType": "address",
          "name": "account",
          "type": "address"
        }
      ],
      "name": "Paused",
      "type": "event"
    },
    {
      "anonymous": false,
      "inputs": [
        {
          "indexed": true,
          "internalType": "address",
          "name": "from",
          "type": "address"
        },
        {
          "indexed": true,
          "internalType": "address",
          "name": "to",
          "type": "address"
        },
        {
          "indexed": true,
          "internalType": "uint256",
          "name": "tokenId",
          "type": "uint256"
        }
      ],
      "name": "Transfer",
      "type": "event"
    },
    {
      "anonymous": false,
      "inputs": [
        {
          "indexed": false,
          "internalType": "address",
          "name": "account",
          "type": "address"
        }
      ],
      "name": "Unpaused",
      "type": "event"
    },
    {
      "inputs": [],
      "name": "MAX_PUBLIC_MINT",
      "outputs": [
        {
          "internalType": "uint256",
          "name": "",
          "type": "uint256"
        }
      ],
      "stateMutability": "view",
      "type": "function"
    },
    {
      "inputs": [],
      "name": "MAX_SUPPLY",
      "outputs": [
        {
          "internalType": "uint256",
          "name": "",
          "type": "uint256"
        }
      ],
      "stateMutability": "view",
      "type": "function"
    },
    {
      "inputs": [],
      "name": "PRICE_PER_TOKEN",
      "outputs": [
        {
          "internalType": "uint256",
          "name": "",
          "type": "uint256"
        }
      ],
      "stateMutability": "view",
      "type": "function"
    },
    {
      "inputs": [
        {
          "internalType": "address",
          "name": "to",
          "type": "address"
        },
        {
          "internalType": "uint256",
          "name": "tokenId",
          "type": "uint256"
        }
      ],
      "name": "approve",
      "outputs": [],
      "stateMutability": "nonpayable",
      "type": "function"
    },
    {
      "inputs": [
        {
          "internalType": "address",
          "name": "owner",
          "type": "address"
        }
      ],
      "name": "balanceOf",
      "outputs": [
        {
          "internalType": "uint256",
          "name": "",
          "type": "uint256"
        }
      ],
      "stateMutability": "view",
      "type": "function"
    },
    {
      "inputs": [
        {
          "internalType": "uint256",
          "name": "numberOfTokens",
          "type": "uint256"
        }
      ],
      "name": "founderMint",
      "outputs": [],
      "stateMutability": "payable",
      "type": "function"
    },
    {
      "inputs": [
        {
          "internalType": "uint256",
          "name": "tokenId",
          "type": "uint256"
        }
      ],
      "name": "getApproved",
      "outputs": [
        {
          "internalType": "address",
          "name": "",
          "type": "address"
        }
      ],
      "stateMutability": "view",
      "type": "function"
    },
    {
      "inputs": [
        {
          "internalType": "address",
          "name": "owner",
          "type": "address"
        },
        {
          "internalType": "address",
          "name": "operator",
          "type": "address"
        }
      ],
      "name": "isApprovedForAll",
      "outputs": [
        {
          "internalType": "bool",
          "name": "",
          "type": "bool"
        }
      ],
      "stateMutability": "view",
      "type": "function"
    },
    {
      "inputs": [
        {
          "internalType": "uint256",
          "name": "numberOfTokens",
          "type": "uint256"
        }
      ],
      "name": "mint",
      "outputs": [],
      "stateMutability": "payable",
      "type": "function"
    },
    {
      "inputs": [],
      "name": "name",
      "outputs": [
        {
          "internalType": "string",
          "name": "",
          "type": "string"
        }
      ],
      "stateMutability": "view",
      "type": "function"
    },
    {
      "inputs": [],
      "name": "owner",
      "outputs": [
        {
          "internalType": "address",
          "name": "",
          "type": "address"
        }
      ],
      "stateMutability": "view",
      "type": "function"
    },
    {
      "inputs": [
        {
          "internalType": "uint256",
          "name": "tokenId",
          "type": "uint256"
        }
      ],
      "name": "ownerOf",
      "outputs": [
        {
          "internalType": "address",
          "name": "",
          "type": "address"
        }
      ],
      "stateMutability": "view",
      "type": "function"
    },
    {
      "inputs": [],
      "name": "pause",
      "outputs": [],
      "stateMutability": "nonpayable",
      "type": "function"
    },
    {
      "inputs": [],
      "name": "paused",
      "outputs": [
        {
          "internalType": "bool",
          "name": "",
          "type": "bool"
        }
      ],
      "stateMutability": "view",
      "type": "function"
    },
    {
      "inputs": [],
      "name": "renounceOwnership",
      "outputs": [],
      "stateMutability": "nonpayable",
      "type": "function"
    },
    {
      "inputs": [
        {
          "internalType": "address",
          "name": "from",
          "type": "address"
        },
        {
          "internalType": "address",
          "name": "to",
          "type": "address"
        },
        {
          "internalType": "uint256",
          "name": "tokenId",
          "type": "uint256"
        }
      ],
      "name": "safeTransferFrom",
      "outputs": [],
      "stateMutability": "nonpayable",
      "type": "function"
    },
    {
      "inputs": [
        {
          "internalType": "address",
          "name": "from",
          "type": "address"
        },
        {
          "internalType": "address",
          "name": "to",
          "type": "address"
        },
        {
          "internalType": "uint256",
          "name": "tokenId",
          "type": "uint256"
        },
        {
          "internalType": "bytes",
          "name": "_data",
          "type": "bytes"
        }
      ],
      "name": "safeTransferFrom",
      "outputs": [],
      "stateMutability": "nonpayable",
      "type": "function"
    },
    {
      "inputs": [
        {
          "internalType": "address",
          "name": "operator",
          "type": "address"
        },
        {
          "internalType": "bool",
          "name": "approved",
          "type": "bool"
        }
      ],
      "name": "setApprovalForAll",
      "outputs": [],
      "stateMutability": "nonpayable",
      "type": "function"
    },
    {
      "inputs": [
        {
          "internalType": "string",
          "name": "_baseTokenUri",
          "type": "string"
        }
      ],
      "name": "setBaseTokenUri",
      "outputs": [],
      "stateMutability": "nonpayable",
      "type": "function"
    },
    {
      "inputs": [
        {
          "internalType": "bytes4",
          "name": "interfaceId",
          "type": "bytes4"
        }
      ],
      "name": "supportsInterface",
      "outputs": [
        {
          "internalType": "bool",
          "name": "",
          "type": "bool"
        }
      ],
      "stateMutability": "view",
      "type": "function"
    },
    {
      "inputs": [],
      "name": "symbol",
      "outputs": [
        {
          "internalType": "string",
          "name": "",
          "type": "string"
        }
      ],
      "stateMutability": "view",
      "type": "function"
    },
    {
      "inputs": [
        {
          "internalType": "uint256",
          "name": "index",
          "type": "uint256"
        }
      ],
      "name": "tokenByIndex",
      "outputs": [
        {
          "internalType": "uint256",
          "name": "",
          "type": "uint256"
        }
      ],
      "stateMutability": "view",
      "type": "function"
    },
    {
      "inputs": [
        {
          "internalType": "address",
          "name": "owner",
          "type": "address"
        },
        {
          "internalType": "uint256",
          "name": "index",
          "type": "uint256"
        }
      ],
      "name": "tokenOfOwnerByIndex",
      "outputs": [
        {
          "internalType": "uint256",
          "name": "",
          "type": "uint256"
        }
      ],
      "stateMutability": "view",
      "type": "function"
    },
    {
      "inputs": [
        {
          "internalType": "uint256",
          "name": "_tokenId",
          "type": "uint256"
        }
      ],
      "name": "tokenURI",
      "outputs": [
        {
          "internalType": "string",
          "name": "",
          "type": "string"
        }
      ],
      "stateMutability": "view",
      "type": "function"
    },
    {
      "inputs": [],
      "name": "totalSupply",
      "outputs": [
        {
          "internalType": "uint256",
          "name": "",
          "type": "uint256"
        }
      ],
      "stateMutability": "view",
      "type": "function"
    },
    {
      "inputs": [
        {
          "internalType": "address",
          "name": "from",
          "type": "address"
        },
        {
          "internalType": "address",
          "name": "to",
          "type": "address"
        },
        {
          "internalType": "uint256",
          "name": "tokenId",
          "type": "uint256"
        }
      ],
      "name": "transferFrom",
      "outputs": [],
      "stateMutability": "nonpayable",
      "type": "function"
    },
    {
      "inputs": [
        {
          "internalType": "address",
          "name": "newOwner",
          "type": "address"
        }
      ],
      "name": "transferOwnership",
      "outputs": [],
      "stateMutability": "nonpayable",
      "type": "function"
    },
    {
      "inputs": [],
      "name": "unpause",
      "outputs": [],
      "stateMutability": "nonpayable",
      "type": "function"
    },
    {
      "inputs": [],
      "name": "withdraw",
      "outputs": [],
      "stateMutability": "nonpayable",
      "type": "function"
    }
  ],
  "transactionHash": "0x81d5f2a508573e9eee72aba07b328626fe71f1a114600892b45525de0630c23d",
  "args": [],
  "numDeployments": 1,
  "solcInputHash": "c8cc010443cfdd1cc0ee6d5502cbb071",
  "bytecode": "0x60806040523480156200001157600080fd5b506040518060400160405280600f81526020017f4e65726420436f6c6c656374696f6e00000000000000000000000000000000008152506040518060400160405280600381526020017f4e52440000000000000000000000000000000000000000000000000000000000815250816000908051906020019062000096929190620001c1565b508060019080519060200190620000af929190620001c1565b5050506000600660006101000a81548160ff021916908315150217905550620000ed620000e1620000f360201b60201c565b620000fb60201b60201c565b620002d6565b600033905090565b6000600660019054906101000a900473ffffffffffffffffffffffffffffffffffffffff16905081600660016101000a81548173ffffffffffffffffffffffffffffffffffffffff021916908373ffffffffffffffffffffffffffffffffffffffff1602179055508173ffffffffffffffffffffffffffffffffffffffff168173ffffffffffffffffffffffffffffffffffffffff167f8be0079c531659141344cd1fd0a4f28419497f9722a3daafe3b4186f6b6457e060405160405180910390a35050565b828054620001cf90620002a0565b90600052602060002090601f016020900481019282620001f357600085556200023f565b82601f106200020e57805160ff19168380011785556200023f565b828001600101855582156200023f579182015b828111156200023e57825182559160200191906001019062000221565b5b5090506200024e919062000252565b5090565b5b808211156200026d57600081600090555060010162000253565b5090565b7f4e487b7100000000000000000000000000000000000000000000000000000000600052602260045260246000fd5b60006002820490506001821680620002b957607f821691505b60208210811415620002d057620002cf62000271565b5b50919050565b61410b80620002e66000396000f3fe6080604052600436106101c25760003560e01c806365f13097116100f757806395d89b4111610095578063c87b56dd11610064578063c87b56dd146105fb578063e985e9c514610638578063f2fde38b14610675578063f42202e81461069e576101c2565b806395d89b4114610562578063a0712d681461058d578063a22cb465146105a9578063b88d4fde146105d2576101c2565b8063833b9499116100d1578063833b9499146104cc5780638456cb59146104f75780638da5cb5b1461050e57806395652cfa14610539576101c2565b806365f130971461044d57806370a0823114610478578063715018a6146104b5576101c2565b806332cb6b0c1161016457806342842e0e1161013e57806342842e0e1461037f5780634f6ccce7146103a85780635c975abb146103e55780636352211e14610410576101c2565b806332cb6b0c146103265780633ccfd60b146103515780633f4ba83a14610368576101c2565b8063095ea7b3116101a0578063095ea7b31461026c57806318160ddd1461029557806323b872dd146102c05780632f745c59146102e9576101c2565b806301ffc9a7146101c757806306fdde0314610204578063081812fc1461022f575b600080fd5b3480156101d357600080fd5b506101ee60048036038101906101e99190612aac565b6106ba565b6040516101fb9190612af4565b60405180910390f35b34801561021057600080fd5b506102196106cc565b6040516102269190612ba8565b60405180910390f35b34801561023b57600080fd5b5061025660048036038101906102519190612c00565b61075e565b6040516102639190612c6e565b60405180910390f35b34801561027857600080fd5b50610293600480360381019061028e9190612cb5565b6107e3565b005b3480156102a157600080fd5b506102aa6108fb565b6040516102b79190612d04565b60405180910390f35b3480156102cc57600080fd5b506102e760048036038101906102e29190612d1f565b610908565b005b3480156102f557600080fd5b50610310600480360381019061030b9190612cb5565b610968565b60405161031d9190612d04565b60405180910390f35b34801561033257600080fd5b5061033b610a0d565b6040516103489190612d04565b60405180910390f35b34801561035d57600080fd5b50610366610a13565b005b34801561037457600080fd5b5061037d610ade565b005b34801561038b57600080fd5b506103a660048036038101906103a19190612d1f565b610b64565b005b3480156103b457600080fd5b506103cf60048036038101906103ca9190612c00565b610b84565b6040516103dc9190612d04565b60405180910390f35b3480156103f157600080fd5b506103fa610bf5565b6040516104079190612af4565b60405180910390f35b34801561041c57600080fd5b5061043760048036038101906104329190612c00565b610c0c565b6040516104449190612c6e565b60405180910390f35b34801561045957600080fd5b50610462610cbe565b60405161046f9190612d04565b60405180910390f35b34801561048457600080fd5b5061049f600480360381019061049a9190612d72565b610cc3565b6040516104ac9190612d04565b60405180910390f35b3480156104c157600080fd5b506104ca610d7b565b005b3480156104d857600080fd5b506104e1610e03565b6040516104ee9190612d04565b60405180910390f35b34801561050357600080fd5b5061050c610e0e565b005b34801561051a57600080fd5b50610523610e94565b6040516105309190612c6e565b60405180910390f35b34801561054557600080fd5b50610560600480360381019061055b9190612e04565b610ebe565b005b34801561056e57600080fd5b50610577610f50565b6040516105849190612ba8565b60405180910390f35b6105a760048036038101906105a29190612c00565b610fe2565b005b3480156105b557600080fd5b506105d060048036038101906105cb9190612e7d565b61115f565b005b3480156105de57600080fd5b506105f960048036038101906105f49190612fed565b611175565b005b34801561060757600080fd5b50610622600480360381019061061d9190612c00565b6111d7565b60405161062f9190612ba8565b60405180910390f35b34801561064457600080fd5b5061065f600480360381019061065a9190613070565b611253565b60405161066c9190612af4565b60405180910390f35b34801561068157600080fd5b5061069c60048036038101906106979190612d72565b6112e7565b005b6106b860048036038101906106b39190612c00565b6113df565b005b60006106c582611583565b9050919050565b6060600080546106db906130df565b80601f0160208091040260200160405190810160405280929190818152602001828054610707906130df565b80156107545780601f1061072957610100808354040283529160200191610754565b820191906000526020600020905b81548152906001019060200180831161073757829003601f168201915b5050505050905090565b6000610769826115fd565b6107a8576040517f08c379a000000000000000000000000000000000000000000000000000000000815260040161079f90613183565b60405180910390fd5b6004600083815260200190815260200160002060009054906101000a900473ffffffffffffffffffffffffffffffffffffffff169050919050565b60006107ee82610c0c565b90508073ffffffffffffffffffffffffffffffffffffffff168373ffffffffffffffffffffffffffffffffffffffff16141561085f576040517f08c379a000000000000000000000000000000000000000000000000000000000815260040161085690613215565b60405180910390fd5b8073ffffffffffffffffffffffffffffffffffffffff1661087e611669565b73ffffffffffffffffffffffffffffffffffffffff1614806108ad57506108ac816108a7611669565b611253565b5b6108ec576040517f08c379a00000000000000000000000000000000000000000000000000000000081526004016108e3906132a7565b60405180910390fd5b6108f68383611671565b505050565b6000600980549050905090565b610919610913611669565b8261172a565b610958576040517f08c379a000000000000000000000000000000000000000000000000000000000815260040161094f90613339565b60405180910390fd5b610963838383611808565b505050565b600061097383610cc3565b82106109b4576040517f08c379a00000000000000000000000000000000000000000000000000000000081526004016109ab906133cb565b60405180910390fd5b600760008473ffffffffffffffffffffffffffffffffffffffff1673ffffffffffffffffffffffffffffffffffffffff168152602001908152602001600020600083815260200190815260200160002054905092915050565b6103e881565b610a1b611669565b73ffffffffffffffffffffffffffffffffffffffff16610a39610e94565b73ffffffffffffffffffffffffffffffffffffffff1614610a8f576040517f08c379a0000000000000000000000000000000000000000000000000000000008152600401610a8690613437565b60405180910390fd5b60004790503373ffffffffffffffffffffffffffffffffffffffff166108fc829081150290604051600060405180830381858888f19350505050158015610ada573d6000803e3d6000fd5b5050565b610ae6611669565b73ffffffffffffffffffffffffffffffffffffffff16610b04610e94565b73ffffffffffffffffffffffffffffffffffffffff1614610b5a576040517f08c379a0000000000000000000000000000000000000000000000000000000008152600401610b5190613437565b60405180910390fd5b610b62611a6f565b565b610b7f83838360405180602001604052806000815250611175565b505050565b6000610b8e6108fb565b8210610bcf576040517f08c379a0000000000000000000000000000000000000000000000000000000008152600401610bc6906134c9565b60405180910390fd5b60098281548110610be357610be26134e9565b5b90600052602060002001549050919050565b6000600660009054906101000a900460ff16905090565b6000806002600084815260200190815260200160002060009054906101000a900473ffffffffffffffffffffffffffffffffffffffff169050600073ffffffffffffffffffffffffffffffffffffffff168173ffffffffffffffffffffffffffffffffffffffff161415610cb5576040517f08c379a0000000000000000000000000000000000000000000000000000000008152600401610cac9061358a565b60405180910390fd5b80915050919050565b600a81565b60008073ffffffffffffffffffffffffffffffffffffffff168273ffffffffffffffffffffffffffffffffffffffff161415610d34576040517f08c379a0000000000000000000000000000000000000000000000000000000008152600401610d2b9061361c565b60405180910390fd5b600360008373ffffffffffffffffffffffffffffffffffffffff1673ffffffffffffffffffffffffffffffffffffffff168152602001908152602001600020549050919050565b610d83611669565b73ffffffffffffffffffffffffffffffffffffffff16610da1610e94565b73ffffffffffffffffffffffffffffffffffffffff1614610df7576040517f08c379a0000000000000000000000000000000000000000000000000000000008152600401610dee90613437565b60405180910390fd5b610e016000611b11565b565b66470de4df82000081565b610e16611669565b73ffffffffffffffffffffffffffffffffffffffff16610e34610e94565b73ffffffffffffffffffffffffffffffffffffffff1614610e8a576040517f08c379a0000000000000000000000000000000000000000000000000000000008152600401610e8190613437565b60405180910390fd5b610e92611bd7565b565b6000600660019054906101000a900473ffffffffffffffffffffffffffffffffffffffff16905090565b610ec6611669565b73ffffffffffffffffffffffffffffffffffffffff16610ee4610e94565b73ffffffffffffffffffffffffffffffffffffffff1614610f3a576040517f08c379a0000000000000000000000000000000000000000000000000000000008152600401610f3190613437565b60405180910390fd5b8181600c9190610f4b92919061299d565b505050565b606060018054610f5f906130df565b80601f0160208091040260200160405190810160405280929190818152602001828054610f8b906130df565b8015610fd85780601f10610fad57610100808354040283529160200191610fd8565b820191906000526020600020905b815481529060010190602001808311610fbb57829003601f168201915b5050505050905090565b610fea610bf5565b1561102a576040517f08c379a000000000000000000000000000000000000000000000000000000000815260040161102190613688565b60405180910390fd5b60006110346108fb565b90506103e8828261104591906136d7565b1115611086576040517f08c379a000000000000000000000000000000000000000000000000000000000815260040161107d90613779565b60405180910390fd5b600a8211156110ca576040517f08c379a00000000000000000000000000000000000000000000000000000000081526004016110c1906137e5565b60405180910390fd5b348266470de4df8200006110de9190613805565b111561111f576040517f08c379a0000000000000000000000000000000000000000000000000000000008152600401611116906138ab565b60405180910390fd5b60005b8281101561115a5761113d33611138600b611c7a565b611c88565b611147600b611ca6565b8080611152906138cb565b915050611122565b505050565b61117161116a611669565b8383611cbc565b5050565b611186611180611669565b8361172a565b6111c5576040517f08c379a00000000000000000000000000000000000000000000000000000000081526004016111bc90613339565b60405180910390fd5b6111d184848484611e29565b50505050565b60606111e2826115fd565b611221576040517f08c379a000000000000000000000000000000000000000000000000000000000815260040161121890613960565b60405180910390fd5b600c61122c83611e85565b60405160200161123d929190613a50565b6040516020818303038152906040529050919050565b6000600560008473ffffffffffffffffffffffffffffffffffffffff1673ffffffffffffffffffffffffffffffffffffffff16815260200190815260200160002060008373ffffffffffffffffffffffffffffffffffffffff1673ffffffffffffffffffffffffffffffffffffffff16815260200190815260200160002060009054906101000a900460ff16905092915050565b6112ef611669565b73ffffffffffffffffffffffffffffffffffffffff1661130d610e94565b73ffffffffffffffffffffffffffffffffffffffff1614611363576040517f08c379a000000000000000000000000000000000000000000000000000000000815260040161135a90613437565b60405180910390fd5b600073ffffffffffffffffffffffffffffffffffffffff168173ffffffffffffffffffffffffffffffffffffffff1614156113d3576040517f08c379a00000000000000000000000000000000000000000000000000000000081526004016113ca90613ae6565b60405180910390fd5b6113dc81611b11565b50565b6113e7610bf5565b15611427576040517f08c379a000000000000000000000000000000000000000000000000000000000815260040161141e90613688565b60405180910390fd5b61142f611669565b73ffffffffffffffffffffffffffffffffffffffff1661144d610e94565b73ffffffffffffffffffffffffffffffffffffffff16146114a3576040517f08c379a000000000000000000000000000000000000000000000000000000000815260040161149a90613437565b60405180910390fd5b60006114ad6108fb565b90506103e882826114be91906136d7565b11156114ff576040517f08c379a00000000000000000000000000000000000000000000000000000000081526004016114f690613779565b60405180910390fd5b600a821115611543576040517f08c379a000000000000000000000000000000000000000000000000000000000815260040161153a906137e5565b60405180910390fd5b60005b8281101561157e576115613361155c600b611c7a565b611c88565b61156b600b611ca6565b8080611576906138cb565b915050611546565b505050565b60007f780e9d63000000000000000000000000000000000000000000000000000000007bffffffffffffffffffffffffffffffffffffffffffffffffffffffff1916827bffffffffffffffffffffffffffffffffffffffffffffffffffffffff191614806115f657506115f582611fe6565b5b9050919050565b60008073ffffffffffffffffffffffffffffffffffffffff166002600084815260200190815260200160002060009054906101000a900473ffffffffffffffffffffffffffffffffffffffff1673ffffffffffffffffffffffffffffffffffffffff1614159050919050565b600033905090565b816004600083815260200190815260200160002060006101000a81548173ffffffffffffffffffffffffffffffffffffffff021916908373ffffffffffffffffffffffffffffffffffffffff160217905550808273ffffffffffffffffffffffffffffffffffffffff166116e483610c0c565b73ffffffffffffffffffffffffffffffffffffffff167f8c5be1e5ebec7d5bd14f71427d1e84f3dd0314c0f7b2291e5b200ac8c7c3b92560405160405180910390a45050565b6000611735826115fd565b611774576040517f08c379a000000000000000000000000000000000000000000000000000000000815260040161176b90613b78565b60405180910390fd5b600061177f83610c0c565b90508073ffffffffffffffffffffffffffffffffffffffff168473ffffffffffffffffffffffffffffffffffffffff1614806117c157506117c08185611253565b5b806117ff57508373ffffffffffffffffffffffffffffffffffffffff166117e78461075e565b73ffffffffffffffffffffffffffffffffffffffff16145b91505092915050565b8273ffffffffffffffffffffffffffffffffffffffff1661182882610c0c565b73ffffffffffffffffffffffffffffffffffffffff161461187e576040517f08c379a000000000000000000000000000000000000000000000000000000000815260040161187590613c0a565b60405180910390fd5b600073ffffffffffffffffffffffffffffffffffffffff168273ffffffffffffffffffffffffffffffffffffffff1614156118ee576040517f08c379a00000000000000000000000000000000000000000000000000000000081526004016118e590613c9c565b60405180910390fd5b6118f98383836120c8565b611904600082611671565b6001600360008573ffffffffffffffffffffffffffffffffffffffff1673ffffffffffffffffffffffffffffffffffffffff16815260200190815260200160002060008282546119549190613cbc565b925050819055506001600360008473ffffffffffffffffffffffffffffffffffffffff1673ffffffffffffffffffffffffffffffffffffffff16815260200190815260200160002060008282546119ab91906136d7565b92505081905550816002600083815260200190815260200160002060006101000a81548173ffffffffffffffffffffffffffffffffffffffff021916908373ffffffffffffffffffffffffffffffffffffffff160217905550808273ffffffffffffffffffffffffffffffffffffffff168473ffffffffffffffffffffffffffffffffffffffff167fddf252ad1be2c89b69c2b068fc378daa952ba7f163c4a11628f55a4df523b3ef60405160405180910390a4611a6a838383612120565b505050565b611a77610bf5565b611ab6576040517f08c379a0000000000000000000000000000000000000000000000000000000008152600401611aad90613d3c565b60405180910390fd5b6000600660006101000a81548160ff0219169083151502179055507f5db9ee0a495bf2e6ff9c91a7834c1ba4fdd244a5e8aa4e537bd38aeae4b073aa611afa611669565b604051611b079190612c6e565b60405180910390a1565b6000600660019054906101000a900473ffffffffffffffffffffffffffffffffffffffff16905081600660016101000a81548173ffffffffffffffffffffffffffffffffffffffff021916908373ffffffffffffffffffffffffffffffffffffffff1602179055508173ffffffffffffffffffffffffffffffffffffffff168173ffffffffffffffffffffffffffffffffffffffff167f8be0079c531659141344cd1fd0a4f28419497f9722a3daafe3b4186f6b6457e060405160405180910390a35050565b611bdf610bf5565b15611c1f576040517f08c379a0000000000000000000000000000000000000000000000000000000008152600401611c1690613688565b60405180910390fd5b6001600660006101000a81548160ff0219169083151502179055507f62e78cea01bee320cd4e420270b5ea74000d11b0c9f74754ebdbfc544b05a258611c63611669565b604051611c709190612c6e565b60405180910390a1565b600081600001549050919050565b611ca2828260405180602001604052806000815250612125565b5050565b6001816000016000828254019250508190555050565b8173ffffffffffffffffffffffffffffffffffffffff168373ffffffffffffffffffffffffffffffffffffffff161415611d2b576040517f08c379a0000000000000000000000000000000000000000000000000000000008152600401611d2290613da8565b60405180910390fd5b80600560008573ffffffffffffffffffffffffffffffffffffffff1673ffffffffffffffffffffffffffffffffffffffff16815260200190815260200160002060008473ffffffffffffffffffffffffffffffffffffffff1673ffffffffffffffffffffffffffffffffffffffff16815260200190815260200160002060006101000a81548160ff0219169083151502179055508173ffffffffffffffffffffffffffffffffffffffff168373ffffffffffffffffffffffffffffffffffffffff167f17307eab39ab6107e8899845ad3d59bd9653f200f220920489ca2b5937696c3183604051611e1c9190612af4565b60405180910390a3505050565b611e34848484611808565b611e4084848484612180565b611e7f576040517f08c379a0000000000000000000000000000000000000000000000000000000008152600401611e7690613e3a565b60405180910390fd5b50505050565b60606000821415611ecd576040518060400160405280600181526020017f30000000000000000000000000000000000000000000000000000000000000008152509050611fe1565b600082905060005b60008214611eff578080611ee8906138cb565b915050600a82611ef89190613e89565b9150611ed5565b60008167ffffffffffffffff811115611f1b57611f1a612ec2565b5b6040519080825280601f01601f191660200182016040528015611f4d5781602001600182028036833780820191505090505b5090505b60008514611fda57600182611f669190613cbc565b9150600a85611f759190613eba565b6030611f8191906136d7565b60f81b818381518110611f9757611f966134e9565b5b60200101907effffffffffffffffffffffffffffffffffffffffffffffffffffffffffffff1916908160001a905350600a85611fd39190613e89565b9450611f51565b8093505050505b919050565b60007f80ac58cd000000000000000000000000000000000000000000000000000000007bffffffffffffffffffffffffffffffffffffffffffffffffffffffff1916827bffffffffffffffffffffffffffffffffffffffffffffffffffffffff191614806120b157507f5b5e139f000000000000000000000000000000000000000000000000000000007bffffffffffffffffffffffffffffffffffffffffffffffffffffffff1916827bffffffffffffffffffffffffffffffffffffffffffffffffffffffff1916145b806120c157506120c082612317565b5b9050919050565b6120d0610bf5565b15612110576040517f08c379a000000000000000000000000000000000000000000000000000000000815260040161210790613688565b60405180910390fd5b61211b838383612381565b505050565b505050565b61212f8383612495565b61213c6000848484612180565b61217b576040517f08c379a000000000000000000000000000000000000000000000000000000000815260040161217290613e3a565b60405180910390fd5b505050565b60006121a18473ffffffffffffffffffffffffffffffffffffffff1661266f565b1561230a578373ffffffffffffffffffffffffffffffffffffffff1663150b7a026121ca611669565b8786866040518563ffffffff1660e01b81526004016121ec9493929190613f40565b602060405180830381600087803b15801561220657600080fd5b505af192505050801561223757506040513d601f19601f820116820180604052508101906122349190613fa1565b60015b6122ba573d8060008114612267576040519150601f19603f3d011682016040523d82523d6000602084013e61226c565b606091505b506000815114156122b2576040517f08c379a00000000000000000000000000000000000000000000000000000000081526004016122a990613e3a565b60405180910390fd5b805181602001fd5b63150b7a0260e01b7bffffffffffffffffffffffffffffffffffffffffffffffffffffffff1916817bffffffffffffffffffffffffffffffffffffffffffffffffffffffff19161491505061230f565b600190505b949350505050565b60007f01ffc9a7000000000000000000000000000000000000000000000000000000007bffffffffffffffffffffffffffffffffffffffffffffffffffffffff1916827bffffffffffffffffffffffffffffffffffffffffffffffffffffffff1916149050919050565b61238c838383612692565b600073ffffffffffffffffffffffffffffffffffffffff168373ffffffffffffffffffffffffffffffffffffffff1614156123cf576123ca81612697565b61240e565b8173ffffffffffffffffffffffffffffffffffffffff168373ffffffffffffffffffffffffffffffffffffffff161461240d5761240c83826126e0565b5b5b600073ffffffffffffffffffffffffffffffffffffffff168273ffffffffffffffffffffffffffffffffffffffff1614156124515761244c8161284d565b612490565b8273ffffffffffffffffffffffffffffffffffffffff168273ffffffffffffffffffffffffffffffffffffffff161461248f5761248e828261291e565b5b5b505050565b600073ffffffffffffffffffffffffffffffffffffffff168273ffffffffffffffffffffffffffffffffffffffff161415612505576040517f08c379a00000000000000000000000000000000000000000000000000000000081526004016124fc9061401a565b60405180910390fd5b61250e816115fd565b1561254e576040517f08c379a000000000000000000000000000000000000000000000000000000000815260040161254590614086565b60405180910390fd5b61255a600083836120c8565b6001600360008473ffffffffffffffffffffffffffffffffffffffff1673ffffffffffffffffffffffffffffffffffffffff16815260200190815260200160002060008282546125aa91906136d7565b92505081905550816002600083815260200190815260200160002060006101000a81548173ffffffffffffffffffffffffffffffffffffffff021916908373ffffffffffffffffffffffffffffffffffffffff160217905550808273ffffffffffffffffffffffffffffffffffffffff16600073ffffffffffffffffffffffffffffffffffffffff167fddf252ad1be2c89b69c2b068fc378daa952ba7f163c4a11628f55a4df523b3ef60405160405180910390a461266b60008383612120565b5050565b6000808273ffffffffffffffffffffffffffffffffffffffff163b119050919050565b505050565b600980549050600a600083815260200190815260200160002081905550600981908060018154018082558091505060019003906000526020600020016000909190919091505550565b600060016126ed84610cc3565b6126f79190613cbc565b90506000600860008481526020019081526020016000205490508181146127dc576000600760008673ffffffffffffffffffffffffffffffffffffffff1673ffffffffffffffffffffffffffffffffffffffff168152602001908152602001600020600084815260200190815260200160002054905080600760008773ffffffffffffffffffffffffffffffffffffffff1673ffffffffffffffffffffffffffffffffffffffff168152602001908152602001600020600084815260200190815260200160002081905550816008600083815260200190815260200160002081905550505b6008600084815260200190815260200160002060009055600760008573ffffffffffffffffffffffffffffffffffffffff1673ffffffffffffffffffffffffffffffffffffffff16815260200190815260200160002060008381526020019081526020016000206000905550505050565b600060016009805490506128619190613cbc565b90506000600a6000848152602001908152602001600020549050600060098381548110612891576128906134e9565b5b9060005260206000200154905080600983815481106128b3576128b26134e9565b5b906000526020600020018190555081600a600083815260200190815260200160002081905550600a6000858152602001908152602001600020600090556009805480612902576129016140a6565b5b6001900381819060005260206000200160009055905550505050565b600061292983610cc3565b905081600760008573ffffffffffffffffffffffffffffffffffffffff1673ffffffffffffffffffffffffffffffffffffffff168152602001908152602001600020600083815260200190815260200160002081905550806008600084815260200190815260200160002081905550505050565b8280546129a9906130df565b90600052602060002090601f0160209004810192826129cb5760008555612a12565b82601f106129e457803560ff1916838001178555612a12565b82800160010185558215612a12579182015b82811115612a115782358255916020019190600101906129f6565b5b509050612a1f9190612a23565b5090565b5b80821115612a3c576000816000905550600101612a24565b5090565b6000604051905090565b600080fd5b600080fd5b60007fffffffff0000000000000000000000000000000000000000000000000000000082169050919050565b612a8981612a54565b8114612a9457600080fd5b50565b600081359050612aa681612a80565b92915050565b600060208284031215612ac257612ac1612a4a565b5b6000612ad084828501612a97565b91505092915050565b60008115159050919050565b612aee81612ad9565b82525050565b6000602082019050612b096000830184612ae5565b92915050565b600081519050919050565b600082825260208201905092915050565b60005b83811015612b49578082015181840152602081019050612b2e565b83811115612b58576000848401525b50505050565b6000601f19601f8301169050919050565b6000612b7a82612b0f565b612b848185612b1a565b9350612b94818560208601612b2b565b612b9d81612b5e565b840191505092915050565b60006020820190508181036000830152612bc28184612b6f565b905092915050565b6000819050919050565b612bdd81612bca565b8114612be857600080fd5b50565b600081359050612bfa81612bd4565b92915050565b600060208284031215612c1657612c15612a4a565b5b6000612c2484828501612beb565b91505092915050565b600073ffffffffffffffffffffffffffffffffffffffff82169050919050565b6000612c5882612c2d565b9050919050565b612c6881612c4d565b82525050565b6000602082019050612c836000830184612c5f565b92915050565b612c9281612c4d565b8114612c9d57600080fd5b50565b600081359050612caf81612c89565b92915050565b60008060408385031215612ccc57612ccb612a4a565b5b6000612cda85828601612ca0565b9250506020612ceb85828601612beb565b9150509250929050565b612cfe81612bca565b82525050565b6000602082019050612d196000830184612cf5565b92915050565b600080600060608486031215612d3857612d37612a4a565b5b6000612d4686828701612ca0565b9350506020612d5786828701612ca0565b9250506040612d6886828701612beb565b9150509250925092565b600060208284031215612d8857612d87612a4a565b5b6000612d9684828501612ca0565b91505092915050565b600080fd5b600080fd5b600080fd5b60008083601f840112612dc457612dc3612d9f565b5b8235905067ffffffffffffffff811115612de157612de0612da4565b5b602083019150836001820283011115612dfd57612dfc612da9565b5b9250929050565b60008060208385031215612e1b57612e1a612a4a565b5b600083013567ffffffffffffffff811115612e3957612e38612a4f565b5b612e4585828601612dae565b92509250509250929050565b612e5a81612ad9565b8114612e6557600080fd5b50565b600081359050612e7781612e51565b92915050565b60008060408385031215612e9457612e93612a4a565b5b6000612ea285828601612ca0565b9250506020612eb385828601612e68565b9150509250929050565b600080fd5b7f4e487b7100000000000000000000000000000000000000000000000000000000600052604160045260246000fd5b612efa82612b5e565b810181811067ffffffffffffffff82111715612f1957612f18612ec2565b5b80604052505050565b6000612f2c612a40565b9050612f388282612ef1565b919050565b600067ffffffffffffffff821115612f5857612f57612ec2565b5b612f6182612b5e565b9050602081019050919050565b82818337600083830152505050565b6000612f90612f8b84612f3d565b612f22565b905082815260208101848484011115612fac57612fab612ebd565b5b612fb7848285612f6e565b509392505050565b600082601f830112612fd457612fd3612d9f565b5b8135612fe4848260208601612f7d565b91505092915050565b6000806000806080858703121561300757613006612a4a565b5b600061301587828801612ca0565b945050602061302687828801612ca0565b935050604061303787828801612beb565b925050606085013567ffffffffffffffff81111561305857613057612a4f565b5b61306487828801612fbf565b91505092959194509250565b6000806040838503121561308757613086612a4a565b5b600061309585828601612ca0565b92505060206130a685828601612ca0565b9150509250929050565b7f4e487b7100000000000000000000000000000000000000000000000000000000600052602260045260246000fd5b600060028204905060018216806130f757607f821691505b6020821081141561310b5761310a6130b0565b5b50919050565b7f4552433732313a20617070726f76656420717565727920666f72206e6f6e657860008201527f697374656e7420746f6b656e0000000000000000000000000000000000000000602082015250565b600061316d602c83612b1a565b915061317882613111565b604082019050919050565b6000602082019050818103600083015261319c81613160565b9050919050565b7f4552433732313a20617070726f76616c20746f2063757272656e74206f776e6560008201527f7200000000000000000000000000000000000000000000000000000000000000602082015250565b60006131ff602183612b1a565b915061320a826131a3565b604082019050919050565b6000602082019050818103600083015261322e816131f2565b9050919050565b7f4552433732313a20617070726f76652063616c6c6572206973206e6f74206f7760008201527f6e6572206e6f7220617070726f76656420666f7220616c6c0000000000000000602082015250565b6000613291603883612b1a565b915061329c82613235565b604082019050919050565b600060208201905081810360008301526132c081613284565b9050919050565b7f4552433732313a207472616e736665722063616c6c6572206973206e6f74206f60008201527f776e6572206e6f7220617070726f766564000000000000000000000000000000602082015250565b6000613323603183612b1a565b915061332e826132c7565b604082019050919050565b6000602082019050818103600083015261335281613316565b9050919050565b7f455243373231456e756d657261626c653a206f776e657220696e646578206f7560008201527f74206f6620626f756e6473000000000000000000000000000000000000000000602082015250565b60006133b5602b83612b1a565b91506133c082613359565b604082019050919050565b600060208201905081810360008301526133e4816133a8565b9050919050565b7f4f776e61626c653a2063616c6c6572206973206e6f7420746865206f776e6572600082015250565b6000613421602083612b1a565b915061342c826133eb565b602082019050919050565b6000602082019050818103600083015261345081613414565b9050919050565b7f455243373231456e756d657261626c653a20676c6f62616c20696e646578206f60008201527f7574206f6620626f756e64730000000000000000000000000000000000000000602082015250565b60006134b3602c83612b1a565b91506134be82613457565b604082019050919050565b600060208201905081810360008301526134e2816134a6565b9050919050565b7f4e487b7100000000000000000000000000000000000000000000000000000000600052603260045260246000fd5b7f4552433732313a206f776e657220717565727920666f72206e6f6e657869737460008201527f656e7420746f6b656e0000000000000000000000000000000000000000000000602082015250565b6000613574602983612b1a565b915061357f82613518565b604082019050919050565b600060208201905081810360008301526135a381613567565b9050919050565b7f4552433732313a2062616c616e636520717565727920666f7220746865207a6560008201527f726f206164647265737300000000000000000000000000000000000000000000602082015250565b6000613606602a83612b1a565b9150613611826135aa565b604082019050919050565b60006020820190508181036000830152613635816135f9565b9050919050565b7f5061757361626c653a2070617573656400000000000000000000000000000000600082015250565b6000613672601083612b1a565b915061367d8261363c565b602082019050919050565b600060208201905081810360008301526136a181613665565b9050919050565b7f4e487b7100000000000000000000000000000000000000000000000000000000600052601160045260246000fd5b60006136e282612bca565b91506136ed83612bca565b9250827fffffffffffffffffffffffffffffffffffffffffffffffffffffffffffffffff03821115613722576137216136a8565b5b828201905092915050565b7f507572636861736520776f756c6420657863656564206d617820746f6b656e73600082015250565b6000613763602083612b1a565b915061376e8261372d565b602082019050919050565b6000602082019050818103600083015261379281613756565b9050919050565b7f4578636565646564206d617820746f6b656e2070757263686173650000000000600082015250565b60006137cf601b83612b1a565b91506137da82613799565b602082019050919050565b600060208201905081810360008301526137fe816137c2565b9050919050565b600061381082612bca565b915061381b83612bca565b9250817fffffffffffffffffffffffffffffffffffffffffffffffffffffffffffffffff0483118215151615613854576138536136a8565b5b828202905092915050565b7f45746865722076616c75652073656e74206973206e6f7420636f727265637400600082015250565b6000613895601f83612b1a565b91506138a08261385f565b602082019050919050565b600060208201905081810360008301526138c481613888565b9050919050565b60006138d682612bca565b91507fffffffffffffffffffffffffffffffffffffffffffffffffffffffffffffffff821415613909576139086136a8565b5b600182019050919050565b7f546f6b656e20646f6573206e6f74206578697374000000000000000000000000600082015250565b600061394a601483612b1a565b915061395582613914565b602082019050919050565b600060208201905081810360008301526139798161393d565b9050919050565b600081905092915050565b60008190508160005260206000209050919050565b600081546139ad816130df565b6139b78186613980565b945060018216600081146139d257600181146139e357613a16565b60ff19831686528186019350613a16565b6139ec8561398b565b60005b83811015613a0e578154818901526001820191506020810190506139ef565b838801955050505b50505092915050565b6000613a2a82612b0f565b613a348185613980565b9350613a44818560208601612b2b565b80840191505092915050565b6000613a5c82856139a0565b9150613a688284613a1f565b91508190509392505050565b7f4f776e61626c653a206e6577206f776e657220697320746865207a65726f206160008201527f6464726573730000000000000000000000000000000000000000000000000000602082015250565b6000613ad0602683612b1a565b9150613adb82613a74565b604082019050919050565b60006020820190508181036000830152613aff81613ac3565b9050919050565b7f4552433732313a206f70657261746f7220717565727920666f72206e6f6e657860008201527f697374656e7420746f6b656e0000000000000000000000000000000000000000602082015250565b6000613b62602c83612b1a565b9150613b6d82613b06565b604082019050919050565b60006020820190508181036000830152613b9181613b55565b9050919050565b7f4552433732313a207472616e736665722066726f6d20696e636f72726563742060008201527f6f776e6572000000000000000000000000000000000000000000000000000000602082015250565b6000613bf4602583612b1a565b9150613bff82613b98565b604082019050919050565b60006020820190508181036000830152613c2381613be7565b9050919050565b7f4552433732313a207472616e7366657220746f20746865207a65726f2061646460008201527f7265737300000000000000000000000000000000000000000000000000000000602082015250565b6000613c86602483612b1a565b9150613c9182613c2a565b604082019050919050565b60006020820190508181036000830152613cb581613c79565b9050919050565b6000613cc782612bca565b9150613cd283612bca565b925082821015613ce557613ce46136a8565b5b828203905092915050565b7f5061757361626c653a206e6f7420706175736564000000000000000000000000600082015250565b6000613d26601483612b1a565b9150613d3182613cf0565b602082019050919050565b60006020820190508181036000830152613d5581613d19565b9050919050565b7f4552433732313a20617070726f766520746f2063616c6c657200000000000000600082015250565b6000613d92601983612b1a565b9150613d9d82613d5c565b602082019050919050565b60006020820190508181036000830152613dc181613d85565b9050919050565b7f4552433732313a207472616e7366657220746f206e6f6e20455243373231526560008201527f63656976657220696d706c656d656e7465720000000000000000000000000000602082015250565b6000613e24603283612b1a565b9150613e2f82613dc8565b604082019050919050565b60006020820190508181036000830152613e5381613e17565b9050919050565b7f4e487b7100000000000000000000000000000000000000000000000000000000600052601260045260246000fd5b6000613e9482612bca565b9150613e9f83612bca565b925082613eaf57613eae613e5a565b5b828204905092915050565b6000613ec582612bca565b9150613ed083612bca565b925082613ee057613edf613e5a565b5b828206905092915050565b600081519050919050565b600082825260208201905092915050565b6000613f1282613eeb565b613f1c8185613ef6565b9350613f2c818560208601612b2b565b613f3581612b5e565b840191505092915050565b6000608082019050613f556000830187612c5f565b613f626020830186612c5f565b613f6f6040830185612cf5565b8181036060830152613f818184613f07565b905095945050505050565b600081519050613f9b81612a80565b92915050565b600060208284031215613fb757613fb6612a4a565b5b6000613fc584828501613f8c565b91505092915050565b7f4552433732313a206d696e7420746f20746865207a65726f2061646472657373600082015250565b6000614004602083612b1a565b915061400f82613fce565b602082019050919050565b6000602082019050818103600083015261403381613ff7565b9050919050565b7f4552433732313a20746f6b656e20616c7265616479206d696e74656400000000600082015250565b6000614070601c83612b1a565b915061407b8261403a565b602082019050919050565b6000602082019050818103600083015261409f81614063565b9050919050565b7f4e487b7100000000000000000000000000000000000000000000000000000000600052603160045260246000fdfea2646970667358221220c4aa490e4d9de887e85f443975d002242c376f6a30d67740e59296c2ed1292e664736f6c63430008080033",
  "devdoc": {
    "kind": "dev",
    "methods": {
      "approve(address,uint256)": {
        "details": "See {IERC721-approve}."
      },
      "balanceOf(address)": {
        "details": "See {IERC721-balanceOf}."
      },
      "getApproved(uint256)": {
        "details": "See {IERC721-getApproved}."
      },
      "isApprovedForAll(address,address)": {
        "details": "See {IERC721-isApprovedForAll}."
      },
      "name()": {
        "details": "See {IERC721Metadata-name}."
      },
      "owner()": {
        "details": "Returns the address of the current owner."
      },
      "ownerOf(uint256)": {
        "details": "See {IERC721-ownerOf}."
      },
      "paused()": {
        "details": "Returns true if the contract is paused, and false otherwise."
      },
      "renounceOwnership()": {
        "details": "Leaves the contract without owner. It will not be possible to call `onlyOwner` functions anymore. Can only be called by the current owner. NOTE: Renouncing ownership will leave the contract without an owner, thereby removing any functionality that is only available to the owner."
      },
      "safeTransferFrom(address,address,uint256)": {
        "details": "See {IERC721-safeTransferFrom}."
      },
      "safeTransferFrom(address,address,uint256,bytes)": {
        "details": "See {IERC721-safeTransferFrom}."
      },
      "setApprovalForAll(address,bool)": {
        "details": "See {IERC721-setApprovalForAll}."
      },
      "symbol()": {
        "details": "See {IERC721Metadata-symbol}."
      },
      "tokenByIndex(uint256)": {
        "details": "See {IERC721Enumerable-tokenByIndex}."
      },
      "tokenOfOwnerByIndex(address,uint256)": {
        "details": "See {IERC721Enumerable-tokenOfOwnerByIndex}."
      },
      "totalSupply()": {
        "details": "See {IERC721Enumerable-totalSupply}."
      },
      "transferFrom(address,address,uint256)": {
        "details": "See {IERC721-transferFrom}."
      },
      "transferOwnership(address)": {
        "details": "Transfers ownership of the contract to a new account (`newOwner`). Can only be called by the current owner."
      }
    },
    "version": 1
  },
  "userdoc": {
    "kind": "user",
    "methods": {},
    "version": 1
  },
  "storageLayout": {
    "storage": [
      {
        "astId": 222,
        "contract": "contracts/Nerd.sol:Nerd",
        "label": "_name",
        "offset": 0,
        "slot": "0",
        "type": "t_string_storage"
      },
      {
        "astId": 224,
        "contract": "contracts/Nerd.sol:Nerd",
        "label": "_symbol",
        "offset": 0,
        "slot": "1",
        "type": "t_string_storage"
      },
      {
        "astId": 228,
        "contract": "contracts/Nerd.sol:Nerd",
        "label": "_owners",
        "offset": 0,
        "slot": "2",
        "type": "t_mapping(t_uint256,t_address)"
      },
      {
        "astId": 232,
        "contract": "contracts/Nerd.sol:Nerd",
        "label": "_balances",
        "offset": 0,
        "slot": "3",
        "type": "t_mapping(t_address,t_uint256)"
      },
      {
        "astId": 236,
        "contract": "contracts/Nerd.sol:Nerd",
        "label": "_tokenApprovals",
        "offset": 0,
        "slot": "4",
        "type": "t_mapping(t_uint256,t_address)"
      },
      {
        "astId": 242,
        "contract": "contracts/Nerd.sol:Nerd",
        "label": "_operatorApprovals",
        "offset": 0,
        "slot": "5",
        "type": "t_mapping(t_address,t_mapping(t_address,t_bool))"
      },
      {
        "astId": 122,
        "contract": "contracts/Nerd.sol:Nerd",
        "label": "_paused",
        "offset": 0,
        "slot": "6",
        "type": "t_bool"
      },
      {
        "astId": 7,
        "contract": "contracts/Nerd.sol:Nerd",
        "label": "_owner",
        "offset": 1,
        "slot": "6",
        "type": "t_address"
      },
      {
        "astId": 1211,
        "contract": "contracts/Nerd.sol:Nerd",
        "label": "_ownedTokens",
        "offset": 0,
        "slot": "7",
        "type": "t_mapping(t_address,t_mapping(t_uint256,t_uint256))"
      },
      {
        "astId": 1215,
        "contract": "contracts/Nerd.sol:Nerd",
        "label": "_ownedTokensIndex",
        "offset": 0,
        "slot": "8",
        "type": "t_mapping(t_uint256,t_uint256)"
      },
      {
        "astId": 1218,
        "contract": "contracts/Nerd.sol:Nerd",
        "label": "_allTokens",
        "offset": 0,
        "slot": "9",
        "type": "t_array(t_uint256)dyn_storage"
      },
      {
        "astId": 1222,
        "contract": "contracts/Nerd.sol:Nerd",
        "label": "_allTokensIndex",
        "offset": 0,
        "slot": "10",
        "type": "t_mapping(t_uint256,t_uint256)"
      },
      {
        "astId": 2244,
        "contract": "contracts/Nerd.sol:Nerd",
        "label": "_tokenIdCounter",
        "offset": 0,
        "slot": "11",
        "type": "t_struct(Counter)1915_storage"
      },
      {
        "astId": 2255,
        "contract": "contracts/Nerd.sol:Nerd",
        "label": "baseTokenUri",
        "offset": 0,
        "slot": "12",
        "type": "t_string_storage"
      }
    ],
    "types": {
      "t_address": {
        "encoding": "inplace",
        "label": "address",
        "numberOfBytes": "20"
      },
      "t_array(t_uint256)dyn_storage": {
        "base": "t_uint256",
        "encoding": "dynamic_array",
        "label": "uint256[]",
        "numberOfBytes": "32"
      },
      "t_bool": {
        "encoding": "inplace",
        "label": "bool",
        "numberOfBytes": "1"
      },
      "t_mapping(t_address,t_bool)": {
        "encoding": "mapping",
        "key": "t_address",
        "label": "mapping(address => bool)",
        "numberOfBytes": "32",
        "value": "t_bool"
      },
      "t_mapping(t_address,t_mapping(t_address,t_bool))": {
        "encoding": "mapping",
        "key": "t_address",
        "label": "mapping(address => mapping(address => bool))",
        "numberOfBytes": "32",
        "value": "t_mapping(t_address,t_bool)"
      },
      "t_mapping(t_address,t_mapping(t_uint256,t_uint256))": {
        "encoding": "mapping",
        "key": "t_address",
        "label": "mapping(address => mapping(uint256 => uint256))",
        "numberOfBytes": "32",
        "value": "t_mapping(t_uint256,t_uint256)"
      },
      "t_mapping(t_address,t_uint256)": {
        "encoding": "mapping",
        "key": "t_address",
        "label": "mapping(address => uint256)",
        "numberOfBytes": "32",
        "value": "t_uint256"
      },
      "t_mapping(t_uint256,t_address)": {
        "encoding": "mapping",
        "key": "t_uint256",
        "label": "mapping(uint256 => address)",
        "numberOfBytes": "32",
        "value": "t_address"
      },
      "t_mapping(t_uint256,t_uint256)": {
        "encoding": "mapping",
        "key": "t_uint256",
        "label": "mapping(uint256 => uint256)",
        "numberOfBytes": "32",
        "value": "t_uint256"
      },
      "t_string_storage": {
        "encoding": "bytes",
        "label": "string",
        "numberOfBytes": "32"
      },
      "t_struct(Counter)1915_storage": {
        "encoding": "inplace",
        "label": "struct Counters.Counter",
        "members": [
          {
            "astId": 1914,
            "contract": "contracts/Nerd.sol:Nerd",
            "label": "_value",
            "offset": 0,
            "slot": "0",
            "type": "t_uint256"
          }
        ],
        "numberOfBytes": "32"
      },
      "t_uint256": {
        "encoding": "inplace",
        "label": "uint256",
        "numberOfBytes": "32"
      }
    }
  }
}